{
  "contractName": "EventTicket",
  "abi": [
    {
      "inputs": [],
      "stateMutability": "nonpayable",
      "type": "constructor"
    },
    {
      "anonymous": false,
      "inputs": [
        {
          "indexed": true,
          "internalType": "address",
          "name": "owner",
          "type": "address"
        },
        {
          "indexed": true,
          "internalType": "address",
          "name": "approved",
          "type": "address"
        },
        {
          "indexed": true,
          "internalType": "uint256",
          "name": "tokenId",
          "type": "uint256"
        }
      ],
      "name": "Approval",
      "type": "event"
    },
    {
      "anonymous": false,
      "inputs": [
        {
          "indexed": true,
          "internalType": "address",
          "name": "owner",
          "type": "address"
        },
        {
          "indexed": true,
          "internalType": "address",
          "name": "operator",
          "type": "address"
        },
        {
          "indexed": false,
          "internalType": "bool",
          "name": "approved",
          "type": "bool"
        }
      ],
      "name": "ApprovalForAll",
      "type": "event"
    },
    {
      "anonymous": false,
      "inputs": [
        {
          "indexed": true,
          "internalType": "address",
          "name": "previousOwner",
          "type": "address"
        },
        {
          "indexed": true,
          "internalType": "address",
          "name": "newOwner",
          "type": "address"
        }
      ],
      "name": "OwnershipTransferred",
      "type": "event"
    },
    {
      "anonymous": false,
      "inputs": [
        {
          "indexed": true,
          "internalType": "address",
          "name": "from",
          "type": "address"
        },
        {
          "indexed": true,
          "internalType": "address",
          "name": "to",
          "type": "address"
        },
        {
          "indexed": true,
          "internalType": "uint256",
          "name": "tokenId",
          "type": "uint256"
        }
      ],
      "name": "Transfer",
      "type": "event"
    },
    {
      "inputs": [
        {
          "internalType": "address",
          "name": "to",
          "type": "address"
        },
        {
          "internalType": "uint256",
          "name": "tokenId",
          "type": "uint256"
        }
      ],
      "name": "approve",
      "outputs": [],
      "stateMutability": "nonpayable",
      "type": "function"
    },
    {
      "inputs": [
        {
          "internalType": "address",
          "name": "owner",
          "type": "address"
        }
      ],
      "name": "balanceOf",
      "outputs": [
        {
          "internalType": "uint256",
          "name": "",
          "type": "uint256"
        }
      ],
      "stateMutability": "view",
      "type": "function",
      "constant": true
    },
    {
      "inputs": [
        {
          "internalType": "uint256",
          "name": "",
          "type": "uint256"
        }
      ],
      "name": "eventOwners",
      "outputs": [
        {
          "internalType": "address",
          "name": "",
          "type": "address"
        }
      ],
      "stateMutability": "view",
      "type": "function",
      "constant": true
    },
    {
      "inputs": [
        {
          "internalType": "uint256",
          "name": "",
          "type": "uint256"
        }
      ],
      "name": "events",
      "outputs": [
        {
          "internalType": "uint256",
          "name": "eventId",
          "type": "uint256"
        },
        {
          "internalType": "string",
          "name": "eventName",
          "type": "string"
        },
        {
          "internalType": "uint256",
          "name": "price",
          "type": "uint256"
        },
        {
          "internalType": "uint256",
          "name": "totalTickets",
          "type": "uint256"
        },
        {
          "internalType": "uint256",
          "name": "ticketsSold",
          "type": "uint256"
        }
      ],
      "stateMutability": "view",
      "type": "function",
      "constant": true
    },
    {
      "inputs": [
        {
          "internalType": "uint256",
          "name": "tokenId",
          "type": "uint256"
        }
      ],
      "name": "getApproved",
      "outputs": [
        {
          "internalType": "address",
          "name": "",
          "type": "address"
        }
      ],
      "stateMutability": "view",
      "type": "function",
      "constant": true
    },
    {
      "inputs": [
        {
          "internalType": "address",
          "name": "owner",
          "type": "address"
        },
        {
          "internalType": "address",
          "name": "operator",
          "type": "address"
        }
      ],
      "name": "isApprovedForAll",
      "outputs": [
        {
          "internalType": "bool",
          "name": "",
          "type": "bool"
        }
      ],
      "stateMutability": "view",
      "type": "function",
      "constant": true
    },
    {
      "inputs": [],
      "name": "name",
      "outputs": [
        {
          "internalType": "string",
          "name": "",
          "type": "string"
        }
      ],
      "stateMutability": "view",
      "type": "function",
      "constant": true
    },
    {
      "inputs": [],
      "name": "owner",
      "outputs": [
        {
          "internalType": "address",
          "name": "",
          "type": "address"
        }
      ],
      "stateMutability": "view",
      "type": "function",
      "constant": true
    },
    {
      "inputs": [
        {
          "internalType": "uint256",
          "name": "tokenId",
          "type": "uint256"
        }
      ],
      "name": "ownerOf",
      "outputs": [
        {
          "internalType": "address",
          "name": "",
          "type": "address"
        }
      ],
      "stateMutability": "view",
      "type": "function",
      "constant": true
    },
    {
      "inputs": [],
      "name": "renounceOwnership",
      "outputs": [],
      "stateMutability": "nonpayable",
      "type": "function"
    },
    {
      "inputs": [
        {
          "internalType": "address",
          "name": "from",
          "type": "address"
        },
        {
          "internalType": "address",
          "name": "to",
          "type": "address"
        },
        {
          "internalType": "uint256",
          "name": "tokenId",
          "type": "uint256"
        }
      ],
      "name": "safeTransferFrom",
      "outputs": [],
      "stateMutability": "nonpayable",
      "type": "function"
    },
    {
      "inputs": [
        {
          "internalType": "address",
          "name": "from",
          "type": "address"
        },
        {
          "internalType": "address",
          "name": "to",
          "type": "address"
        },
        {
          "internalType": "uint256",
          "name": "tokenId",
          "type": "uint256"
        },
        {
          "internalType": "bytes",
          "name": "data",
          "type": "bytes"
        }
      ],
      "name": "safeTransferFrom",
      "outputs": [],
      "stateMutability": "nonpayable",
      "type": "function"
    },
    {
      "inputs": [
        {
          "internalType": "address",
          "name": "operator",
          "type": "address"
        },
        {
          "internalType": "bool",
          "name": "approved",
          "type": "bool"
        }
      ],
      "name": "setApprovalForAll",
      "outputs": [],
      "stateMutability": "nonpayable",
      "type": "function"
    },
    {
      "inputs": [
        {
          "internalType": "bytes4",
          "name": "interfaceId",
          "type": "bytes4"
        }
      ],
      "name": "supportsInterface",
      "outputs": [
        {
          "internalType": "bool",
          "name": "",
          "type": "bool"
        }
      ],
      "stateMutability": "view",
      "type": "function",
      "constant": true
    },
    {
      "inputs": [],
      "name": "symbol",
      "outputs": [
        {
          "internalType": "string",
          "name": "",
          "type": "string"
        }
      ],
      "stateMutability": "view",
      "type": "function",
      "constant": true
    },
    {
      "inputs": [
        {
          "internalType": "address",
          "name": "from",
          "type": "address"
        },
        {
          "internalType": "address",
          "name": "to",
          "type": "address"
        },
        {
          "internalType": "uint256",
          "name": "tokenId",
          "type": "uint256"
        }
      ],
      "name": "transferFrom",
      "outputs": [],
      "stateMutability": "nonpayable",
      "type": "function"
    },
    {
      "inputs": [
        {
          "internalType": "address",
          "name": "newOwner",
          "type": "address"
        }
      ],
      "name": "transferOwnership",
      "outputs": [],
      "stateMutability": "nonpayable",
      "type": "function"
    },
    {
      "inputs": [
        {
          "internalType": "string",
          "name": "eventName",
          "type": "string"
        },
        {
          "internalType": "uint256",
          "name": "price",
          "type": "uint256"
        },
        {
          "internalType": "uint256",
          "name": "totalTickets",
          "type": "uint256"
        }
      ],
      "name": "createEvent",
      "outputs": [],
      "stateMutability": "nonpayable",
      "type": "function"
    },
    {
      "inputs": [
        {
          "internalType": "uint256",
          "name": "eventId",
          "type": "uint256"
        },
        {
          "internalType": "string",
          "name": "eventName",
          "type": "string"
        },
        {
          "internalType": "uint256",
          "name": "price",
          "type": "uint256"
        },
        {
          "internalType": "uint256",
          "name": "totalTickets",
          "type": "uint256"
        }
      ],
      "name": "updateEvent",
      "outputs": [],
      "stateMutability": "nonpayable",
      "type": "function"
    },
    {
      "inputs": [
        {
          "internalType": "uint256",
          "name": "eventId",
          "type": "uint256"
        }
      ],
      "name": "buyTicket",
      "outputs": [],
      "stateMutability": "payable",
      "type": "function",
      "payable": true
    },
    {
      "inputs": [
        {
          "internalType": "uint256",
          "name": "eventId",
          "type": "uint256"
        },
        {
          "internalType": "address",
          "name": "buyer",
          "type": "address"
        },
        {
          "internalType": "uint256",
          "name": "ticketId",
          "type": "uint256"
        }
      ],
      "name": "refundTicket",
      "outputs": [],
      "stateMutability": "nonpayable",
      "type": "function"
    },
    {
      "inputs": [
        {
          "internalType": "uint256",
          "name": "eventId",
          "type": "uint256"
        },
        {
          "internalType": "address",
          "name": "newOwner",
          "type": "address"
        }
      ],
      "name": "transferEventOwnership",
      "outputs": [],
      "stateMutability": "nonpayable",
      "type": "function"
    },
    {
      "inputs": [
        {
          "internalType": "uint256",
          "name": "tokenId",
          "type": "uint256"
        }
      ],
      "name": "tokenURI",
      "outputs": [
        {
          "internalType": "string",
          "name": "",
          "type": "string"
        }
      ],
      "stateMutability": "view",
      "type": "function",
      "constant": true
    }
  ],
  "bytecode": "0x608060405260016007553480156200001657600080fd5b506040518060400160405280600b81526020017f4576656e745469636b65740000000000000000000000000000000000000000008152506040518060400160405280600481526020017f45544b5400000000000000000000000000000000000000000000000000000000815250816000908162000094919062000417565b508060019081620000a6919062000417565b505050620000c9620000bd620000cf60201b60201c565b620000d760201b60201c565b620004fe565b600033905090565b6000600660009054906101000a900473ffffffffffffffffffffffffffffffffffffffff16905081600660006101000a81548173ffffffffffffffffffffffffffffffffffffffff021916908373ffffffffffffffffffffffffffffffffffffffff1602179055508173ffffffffffffffffffffffffffffffffffffffff168173ffffffffffffffffffffffffffffffffffffffff167f8be0079c531659141344cd1fd0a4f28419497f9722a3daafe3b4186f6b6457e060405160405180910390a35050565b600081519050919050565b7f4e487b7100000000000000000000000000000000000000000000000000000000600052604160045260246000fd5b7f4e487b7100000000000000000000000000000000000000000000000000000000600052602260045260246000fd5b600060028204905060018216806200021f57607f821691505b602082108103620002355762000234620001d7565b5b50919050565b60008190508160005260206000209050919050565b60006020601f8301049050919050565b600082821b905092915050565b6000600883026200029f7fffffffffffffffffffffffffffffffffffffffffffffffffffffffffffffffff8262000260565b620002ab868362000260565b95508019841693508086168417925050509392505050565b6000819050919050565b6000819050919050565b6000620002f8620002f2620002ec84620002c3565b620002cd565b620002c3565b9050919050565b6000819050919050565b6200031483620002d7565b6200032c6200032382620002ff565b8484546200026d565b825550505050565b600090565b6200034362000334565b6200035081848462000309565b505050565b5b8181101562000378576200036c60008262000339565b60018101905062000356565b5050565b601f821115620003c75762000391816200023b565b6200039c8462000250565b81016020851015620003ac578190505b620003c4620003bb8562000250565b83018262000355565b50505b505050565b600082821c905092915050565b6000620003ec60001984600802620003cc565b1980831691505092915050565b6000620004078383620003d9565b9150826002028217905092915050565b62000422826200019d565b67ffffffffffffffff8111156200043e576200043d620001a8565b5b6200044a825462000206565b620004578282856200037c565b600060209050601f8311600181146200048f57600084156200047a578287015190505b620004868582620003f9565b865550620004f6565b601f1984166200049f866200023b565b60005b82811015620004c957848901518255600182019150602085019450602081019050620004a2565b86831015620004e95784890151620004e5601f891682620003d9565b8355505b6001600288020188555050505b505050505050565b613b50806200050e6000396000f3fe6080604052600436106101405760003560e01c806370a08231116100b6578063a22cb4651161006f578063a22cb46514610461578063a77d56391461048a578063b88d4fde146104b3578063c87b56dd146104dc578063e985e9c514610519578063f2fde38b1461055657610140565b806370a0823114610365578063715018a6146103a257806386f4c772146103b95780638da5cb5b146103e257806395d89b411461040d5780639e9580f61461043857610140565b80631d196a7f116101085780631d196a7f1461025457806323b872dd1461027d578063336bca15146102a657806342842e0e146102e35780636352211e1461030c57806367dd74ca1461034957610140565b806301ffc9a71461014557806306fdde0314610182578063081812fc146101ad578063095ea7b3146101ea5780630b79143014610213575b600080fd5b34801561015157600080fd5b5061016c600480360381019061016791906124c4565b61057f565b604051610179919061250c565b60405180910390f35b34801561018e57600080fd5b50610197610661565b6040516101a491906125b7565b60405180910390f35b3480156101b957600080fd5b506101d460048036038101906101cf919061260f565b6106f3565b6040516101e1919061267d565b60405180910390f35b3480156101f657600080fd5b50610211600480360381019061020c91906126c4565b610739565b005b34801561021f57600080fd5b5061023a6004803603810190610235919061260f565b610850565b60405161024b959493929190612713565b60405180910390f35b34801561026057600080fd5b5061027b6004803603810190610276919061276d565b61090e565b005b34801561028957600080fd5b506102a4600480360381019061029f91906127c0565b610a7c565b005b3480156102b257600080fd5b506102cd60048036038101906102c8919061260f565b610adc565b6040516102da919061267d565b60405180910390f35b3480156102ef57600080fd5b5061030a600480360381019061030591906127c0565b610b0f565b005b34801561031857600080fd5b50610333600480360381019061032e919061260f565b610b2f565b604051610340919061267d565b60405180910390f35b610363600480360381019061035e919061260f565b610bb5565b005b34801561037157600080fd5b5061038c60048036038101906103879190612813565b610dca565b6040516103999190612840565b60405180910390f35b3480156103ae57600080fd5b506103b7610e81565b005b3480156103c557600080fd5b506103e060048036038101906103db919061285b565b610e95565b005b3480156103ee57600080fd5b506103f7610f4c565b604051610404919061267d565b60405180910390f35b34801561041957600080fd5b50610422610f76565b60405161042f91906125b7565b60405180910390f35b34801561044457600080fd5b5061045f600480360381019061045a91906129d0565b611008565b005b34801561046d57600080fd5b5061048860048036038101906104839190612a6b565b611101565b005b34801561049657600080fd5b506104b160048036038101906104ac9190612aab565b611117565b005b3480156104bf57600080fd5b506104da60048036038101906104d59190612bcf565b6111d8565b005b3480156104e857600080fd5b5061050360048036038101906104fe919061260f565b61123a565b60405161051091906125b7565b60405180910390f35b34801561052557600080fd5b50610540600480360381019061053b9190612c52565b6112e1565b60405161054d919061250c565b60405180910390f35b34801561056257600080fd5b5061057d60048036038101906105789190612813565b611375565b005b60007f80ac58cd000000000000000000000000000000000000000000000000000000007bffffffffffffffffffffffffffffffffffffffffffffffffffffffff1916827bffffffffffffffffffffffffffffffffffffffffffffffffffffffff1916148061064a57507f5b5e139f000000000000000000000000000000000000000000000000000000007bffffffffffffffffffffffffffffffffffffffffffffffffffffffff1916827bffffffffffffffffffffffffffffffffffffffffffffffffffffffff1916145b8061065a5750610659826113f8565b5b9050919050565b60606000805461067090612cc1565b80601f016020809104026020016040519081016040528092919081815260200182805461069c90612cc1565b80156106e95780601f106106be576101008083540402835291602001916106e9565b820191906000526020600020905b8154815290600101906020018083116106cc57829003601f168201915b5050505050905090565b60006106fe82611462565b6004600083815260200190815260200160002060009054906101000a900473ffffffffffffffffffffffffffffffffffffffff169050919050565b600061074482610b2f565b90508073ffffffffffffffffffffffffffffffffffffffff168373ffffffffffffffffffffffffffffffffffffffff16036107b4576040517f08c379a00000000000000000000000000000000000000000000000000000000081526004016107ab90612d64565b60405180910390fd5b8073ffffffffffffffffffffffffffffffffffffffff166107d36114ad565b73ffffffffffffffffffffffffffffffffffffffff1614806108025750610801816107fc6114ad565b6112e1565b5b610841576040517f08c379a000000000000000000000000000000000000000000000000000000000815260040161083890612df6565b60405180910390fd5b61084b83836114b5565b505050565b600860205280600052604060002060009150905080600001549080600101805461087990612cc1565b80601f01602080910402602001604051908101604052809291908181526020018280546108a590612cc1565b80156108f25780601f106108c7576101008083540402835291602001916108f2565b820191906000526020600020905b8154815290600101906020018083116108d557829003601f168201915b5050505050908060020154908060030154908060040154905085565b61091661156e565b600060086000858152602001908152602001600020600001540361096f576040517f08c379a000000000000000000000000000000000000000000000000000000000815260040161096690612e62565b60405180910390fd5b8173ffffffffffffffffffffffffffffffffffffffff1661098f82610b2f565b73ffffffffffffffffffffffffffffffffffffffff16146109e5576040517f08c379a00000000000000000000000000000000000000000000000000000000081526004016109dc90612ece565b60405180910390fd5b6109ee816115ec565b600860008481526020019081526020016000206004016000815480929190610a1590612f1d565b91905055508173ffffffffffffffffffffffffffffffffffffffff166108fc60086000868152602001908152602001600020600201549081150290604051600060405180830381858888f19350505050158015610a76573d6000803e3d6000fd5b50505050565b610a8d610a876114ad565b8261173a565b610acc576040517f08c379a0000000000000000000000000000000000000000000000000000000008152600401610ac390612fb8565b60405180910390fd5b610ad78383836117cf565b505050565b60096020528060005260406000206000915054906101000a900473ffffffffffffffffffffffffffffffffffffffff1681565b610b2a838383604051806020016040528060008152506111d8565b505050565b600080610b3b83611ac8565b9050600073ffffffffffffffffffffffffffffffffffffffff168173ffffffffffffffffffffffffffffffffffffffff1603610bac576040517f08c379a0000000000000000000000000000000000000000000000000000000008152600401610ba390613024565b60405180910390fd5b80915050919050565b6000600860008381526020019081526020016000206000015403610c0e576040517f08c379a0000000000000000000000000000000000000000000000000000000008152600401610c0590612e62565b60405180910390fd5b6008600082815260200190815260200160002060020154341015610c67576040517f08c379a0000000000000000000000000000000000000000000000000000000008152600401610c5e90613090565b60405180910390fd5b6008600082815260200190815260200160002060030154600860008381526020019081526020016000206004015410610cd5576040517f08c379a0000000000000000000000000000000000000000000000000000000008152600401610ccc906130fc565b60405180910390fd5b60006008600083815260200190815260200160002060040154620f424083610cfd919061311c565b610d07919061315e565b9050610d133382611b05565b600860008381526020019081526020016000206004016000815480929190610d3a90613192565b91905055506008600083815260200190815260200160002060020154341115610dc6573373ffffffffffffffffffffffffffffffffffffffff166108fc600860008581526020019081526020016000206002015434610d9991906131da565b9081150290604051600060405180830381858888f19350505050158015610dc4573d6000803e3d6000fd5b505b5050565b60008073ffffffffffffffffffffffffffffffffffffffff168273ffffffffffffffffffffffffffffffffffffffff1603610e3a576040517f08c379a0000000000000000000000000000000000000000000000000000000008152600401610e3190613280565b60405180910390fd5b600360008373ffffffffffffffffffffffffffffffffffffffff1673ffffffffffffffffffffffffffffffffffffffff168152602001908152602001600020549050919050565b610e8961156e565b610e936000611b23565b565b610e9d61156e565b6000600860008481526020019081526020016000206000015403610ef6576040517f08c379a0000000000000000000000000000000000000000000000000000000008152600401610eed90612e62565b60405180910390fd5b806009600084815260200190815260200160002060006101000a81548173ffffffffffffffffffffffffffffffffffffffff021916908373ffffffffffffffffffffffffffffffffffffffff1602179055505050565b6000600660009054906101000a900473ffffffffffffffffffffffffffffffffffffffff16905090565b606060018054610f8590612cc1565b80601f0160208091040260200160405190810160405280929190818152602001828054610fb190612cc1565b8015610ffe5780601f10610fd357610100808354040283529160200191610ffe565b820191906000526020600020905b815481529060010190602001808311610fe157829003601f168201915b5050505050905090565b61101061156e565b6040518060a001604052806007548152602001848152602001838152602001828152602001600081525060086000600754815260200190815260200160002060008201518160000155602082015181600101908161106e919061344c565b506040820151816002015560608201518160030155608082015181600401559050503360096000600754815260200190815260200160002060006101000a81548173ffffffffffffffffffffffffffffffffffffffff021916908373ffffffffffffffffffffffffffffffffffffffff160217905550600760008154809291906110f790613192565b9190505550505050565b61111361110c6114ad565b8383611be9565b5050565b61111f61156e565b6000600860008681526020019081526020016000206000015403611178576040517f08c379a000000000000000000000000000000000000000000000000000000000815260040161116f90612e62565b60405180910390fd5b8260086000868152602001908152602001600020600101908161119b919061344c565b5081600860008681526020019081526020016000206002018190555080600860008681526020019081526020016000206003018190555050505050565b6111e96111e36114ad565b8361173a565b611228576040517f08c379a000000000000000000000000000000000000000000000000000000000815260040161121f90612fb8565b60405180910390fd5b61123484848484611d55565b50505050565b606061124582611db1565b611284576040517f08c379a000000000000000000000000000000000000000000000000000000000815260040161127b90613590565b60405180910390fd5b600061128e611df2565b905060008151116112ae57604051806020016040528060008152506112d9565b806112b884611e09565b6040516020016112c99291906135ec565b6040516020818303038152906040525b915050919050565b6000600560008473ffffffffffffffffffffffffffffffffffffffff1673ffffffffffffffffffffffffffffffffffffffff16815260200190815260200160002060008373ffffffffffffffffffffffffffffffffffffffff1673ffffffffffffffffffffffffffffffffffffffff16815260200190815260200160002060009054906101000a900460ff16905092915050565b61137d61156e565b600073ffffffffffffffffffffffffffffffffffffffff168173ffffffffffffffffffffffffffffffffffffffff16036113ec576040517f08c379a00000000000000000000000000000000000000000000000000000000081526004016113e390613682565b60405180910390fd5b6113f581611b23565b50565b60007f01ffc9a7000000000000000000000000000000000000000000000000000000007bffffffffffffffffffffffffffffffffffffffffffffffffffffffff1916827bffffffffffffffffffffffffffffffffffffffffffffffffffffffff1916149050919050565b61146b81611db1565b6114aa576040517f08c379a00000000000000000000000000000000000000000000000000000000081526004016114a190613024565b60405180910390fd5b50565b600033905090565b816004600083815260200190815260200160002060006101000a81548173ffffffffffffffffffffffffffffffffffffffff021916908373ffffffffffffffffffffffffffffffffffffffff160217905550808273ffffffffffffffffffffffffffffffffffffffff1661152883610b2f565b73ffffffffffffffffffffffffffffffffffffffff167f8c5be1e5ebec7d5bd14f71427d1e84f3dd0314c0f7b2291e5b200ac8c7c3b92560405160405180910390a45050565b6115766114ad565b73ffffffffffffffffffffffffffffffffffffffff16611594610f4c565b73ffffffffffffffffffffffffffffffffffffffff16146115ea576040517f08c379a00000000000000000000000000000000000000000000000000000000081526004016115e1906136ee565b60405180910390fd5b565b60006115f782610b2f565b9050611607816000846001611ed7565b61161082610b2f565b90506004600083815260200190815260200160002060006101000a81549073ffffffffffffffffffffffffffffffffffffffff02191690556001600360008373ffffffffffffffffffffffffffffffffffffffff1673ffffffffffffffffffffffffffffffffffffffff168152602001908152602001600020600082825403925050819055506002600083815260200190815260200160002060006101000a81549073ffffffffffffffffffffffffffffffffffffffff021916905581600073ffffffffffffffffffffffffffffffffffffffff168273ffffffffffffffffffffffffffffffffffffffff167fddf252ad1be2c89b69c2b068fc378daa952ba7f163c4a11628f55a4df523b3ef60405160405180910390a4611736816000846001611edd565b5050565b60008061174683610b2f565b90508073ffffffffffffffffffffffffffffffffffffffff168473ffffffffffffffffffffffffffffffffffffffff161480611788575061178781856112e1565b5b806117c657508373ffffffffffffffffffffffffffffffffffffffff166117ae846106f3565b73ffffffffffffffffffffffffffffffffffffffff16145b91505092915050565b8273ffffffffffffffffffffffffffffffffffffffff166117ef82610b2f565b73ffffffffffffffffffffffffffffffffffffffff1614611845576040517f08c379a000000000000000000000000000000000000000000000000000000000815260040161183c90613780565b60405180910390fd5b600073ffffffffffffffffffffffffffffffffffffffff168273ffffffffffffffffffffffffffffffffffffffff16036118b4576040517f08c379a00000000000000000000000000000000000000000000000000000000081526004016118ab90613812565b60405180910390fd5b6118c18383836001611ed7565b8273ffffffffffffffffffffffffffffffffffffffff166118e182610b2f565b73ffffffffffffffffffffffffffffffffffffffff1614611937576040517f08c379a000000000000000000000000000000000000000000000000000000000815260040161192e90613780565b60405180910390fd5b6004600082815260200190815260200160002060006101000a81549073ffffffffffffffffffffffffffffffffffffffff02191690556001600360008573ffffffffffffffffffffffffffffffffffffffff1673ffffffffffffffffffffffffffffffffffffffff168152602001908152602001600020600082825403925050819055506001600360008473ffffffffffffffffffffffffffffffffffffffff1673ffffffffffffffffffffffffffffffffffffffff16815260200190815260200160002060008282540192505081905550816002600083815260200190815260200160002060006101000a81548173ffffffffffffffffffffffffffffffffffffffff021916908373ffffffffffffffffffffffffffffffffffffffff160217905550808273ffffffffffffffffffffffffffffffffffffffff168473ffffffffffffffffffffffffffffffffffffffff167fddf252ad1be2c89b69c2b068fc378daa952ba7f163c4a11628f55a4df523b3ef60405160405180910390a4611ac38383836001611edd565b505050565b60006002600083815260200190815260200160002060009054906101000a900473ffffffffffffffffffffffffffffffffffffffff169050919050565b611b1f828260405180602001604052806000815250611ee3565b5050565b6000600660009054906101000a900473ffffffffffffffffffffffffffffffffffffffff16905081600660006101000a81548173ffffffffffffffffffffffffffffffffffffffff021916908373ffffffffffffffffffffffffffffffffffffffff1602179055508173ffffffffffffffffffffffffffffffffffffffff168173ffffffffffffffffffffffffffffffffffffffff167f8be0079c531659141344cd1fd0a4f28419497f9722a3daafe3b4186f6b6457e060405160405180910390a35050565b8173ffffffffffffffffffffffffffffffffffffffff168373ffffffffffffffffffffffffffffffffffffffff1603611c57576040517f08c379a0000000000000000000000000000000000000000000000000000000008152600401611c4e9061387e565b60405180910390fd5b80600560008573ffffffffffffffffffffffffffffffffffffffff1673ffffffffffffffffffffffffffffffffffffffff16815260200190815260200160002060008473ffffffffffffffffffffffffffffffffffffffff1673ffffffffffffffffffffffffffffffffffffffff16815260200190815260200160002060006101000a81548160ff0219169083151502179055508173ffffffffffffffffffffffffffffffffffffffff168373ffffffffffffffffffffffffffffffffffffffff167f17307eab39ab6107e8899845ad3d59bd9653f200f220920489ca2b5937696c3183604051611d48919061250c565b60405180910390a3505050565b611d608484846117cf565b611d6c84848484611f3e565b611dab576040517f08c379a0000000000000000000000000000000000000000000000000000000008152600401611da290613910565b60405180910390fd5b50505050565b60008073ffffffffffffffffffffffffffffffffffffffff16611dd383611ac8565b73ffffffffffffffffffffffffffffffffffffffff1614159050919050565b606060405180602001604052806000815250905090565b606060006001611e18846120c5565b01905060008167ffffffffffffffff811115611e3757611e366128a5565b5b6040519080825280601f01601f191660200182016040528015611e695781602001600182028036833780820191505090505b509050600082602001820190505b600115611ecc578080600190039150507f3031323334353637383961626364656600000000000000000000000000000000600a86061a8153600a8581611ec057611ebf613930565b5b04945060008503611e77575b819350505050919050565b50505050565b50505050565b611eed8383612218565b611efa6000848484611f3e565b611f39576040517f08c379a0000000000000000000000000000000000000000000000000000000008152600401611f3090613910565b60405180910390fd5b505050565b6000611f5f8473ffffffffffffffffffffffffffffffffffffffff16612435565b156120b8578373ffffffffffffffffffffffffffffffffffffffff1663150b7a02611f886114ad565b8786866040518563ffffffff1660e01b8152600401611faa94939291906139b4565b6020604051808303816000875af1925050508015611fe657506040513d601f19601f82011682018060405250810190611fe39190613a15565b60015b612068573d8060008114612016576040519150601f19603f3d011682016040523d82523d6000602084013e61201b565b606091505b506000815103612060576040517f08c379a000000000000000000000000000000000000000000000000000000000815260040161205790613910565b60405180910390fd5b805181602001fd5b63150b7a0260e01b7bffffffffffffffffffffffffffffffffffffffffffffffffffffffff1916817bffffffffffffffffffffffffffffffffffffffffffffffffffffffff1916149150506120bd565b600190505b949350505050565b600080600090507a184f03e93ff9f4daa797ed6e38ed64bf6a1f0100000000000000008310612123577a184f03e93ff9f4daa797ed6e38ed64bf6a1f010000000000000000838161211957612118613930565b5b0492506040810190505b6d04ee2d6d415b85acef81000000008310612160576d04ee2d6d415b85acef8100000000838161215657612155613930565b5b0492506020810190505b662386f26fc10000831061218f57662386f26fc10000838161218557612184613930565b5b0492506010810190505b6305f5e10083106121b8576305f5e10083816121ae576121ad613930565b5b0492506008810190505b61271083106121dd5761271083816121d3576121d2613930565b5b0492506004810190505b6064831061220057606483816121f6576121f5613930565b5b0492506002810190505b600a831061220f576001810190505b80915050919050565b600073ffffffffffffffffffffffffffffffffffffffff168273ffffffffffffffffffffffffffffffffffffffff1603612287576040517f08c379a000000000000000000000000000000000000000000000000000000000815260040161227e90613a8e565b60405180910390fd5b61229081611db1565b156122d0576040517f08c379a00000000000000000000000000000000000000000000000000000000081526004016122c790613afa565b60405180910390fd5b6122de600083836001611ed7565b6122e781611db1565b15612327576040517f08c379a000000000000000000000000000000000000000000000000000000000815260040161231e90613afa565b60405180910390fd5b6001600360008473ffffffffffffffffffffffffffffffffffffffff1673ffffffffffffffffffffffffffffffffffffffff16815260200190815260200160002060008282540192505081905550816002600083815260200190815260200160002060006101000a81548173ffffffffffffffffffffffffffffffffffffffff021916908373ffffffffffffffffffffffffffffffffffffffff160217905550808273ffffffffffffffffffffffffffffffffffffffff16600073ffffffffffffffffffffffffffffffffffffffff167fddf252ad1be2c89b69c2b068fc378daa952ba7f163c4a11628f55a4df523b3ef60405160405180910390a4612431600083836001611edd565b5050565b6000808273ffffffffffffffffffffffffffffffffffffffff163b119050919050565b6000604051905090565b600080fd5b600080fd5b60007fffffffff0000000000000000000000000000000000000000000000000000000082169050919050565b6124a18161246c565b81146124ac57600080fd5b50565b6000813590506124be81612498565b92915050565b6000602082840312156124da576124d9612462565b5b60006124e8848285016124af565b91505092915050565b60008115159050919050565b612506816124f1565b82525050565b600060208201905061252160008301846124fd565b92915050565b600081519050919050565b600082825260208201905092915050565b60005b83811015612561578082015181840152602081019050612546565b60008484015250505050565b6000601f19601f8301169050919050565b600061258982612527565b6125938185612532565b93506125a3818560208601612543565b6125ac8161256d565b840191505092915050565b600060208201905081810360008301526125d1818461257e565b905092915050565b6000819050919050565b6125ec816125d9565b81146125f757600080fd5b50565b600081359050612609816125e3565b92915050565b60006020828403121561262557612624612462565b5b6000612633848285016125fa565b91505092915050565b600073ffffffffffffffffffffffffffffffffffffffff82169050919050565b60006126678261263c565b9050919050565b6126778161265c565b82525050565b6000602082019050612692600083018461266e565b92915050565b6126a18161265c565b81146126ac57600080fd5b50565b6000813590506126be81612698565b92915050565b600080604083850312156126db576126da612462565b5b60006126e9858286016126af565b92505060206126fa858286016125fa565b9150509250929050565b61270d816125d9565b82525050565b600060a0820190506127286000830188612704565b818103602083015261273a818761257e565b90506127496040830186612704565b6127566060830185612704565b6127636080830184612704565b9695505050505050565b60008060006060848603121561278657612785612462565b5b6000612794868287016125fa565b93505060206127a5868287016126af565b92505060406127b6868287016125fa565b9150509250925092565b6000806000606084860312156127d9576127d8612462565b5b60006127e7868287016126af565b93505060206127f8868287016126af565b9250506040612809868287016125fa565b9150509250925092565b60006020828403121561282957612828612462565b5b6000612837848285016126af565b91505092915050565b60006020820190506128556000830184612704565b92915050565b6000806040838503121561287257612871612462565b5b6000612880858286016125fa565b9250506020612891858286016126af565b9150509250929050565b600080fd5b600080fd5b7f4e487b7100000000000000000000000000000000000000000000000000000000600052604160045260246000fd5b6128dd8261256d565b810181811067ffffffffffffffff821117156128fc576128fb6128a5565b5b80604052505050565b600061290f612458565b905061291b82826128d4565b919050565b600067ffffffffffffffff82111561293b5761293a6128a5565b5b6129448261256d565b9050602081019050919050565b82818337600083830152505050565b600061297361296e84612920565b612905565b90508281526020810184848401111561298f5761298e6128a0565b5b61299a848285612951565b509392505050565b600082601f8301126129b7576129b661289b565b5b81356129c7848260208601612960565b91505092915050565b6000806000606084860312156129e9576129e8612462565b5b600084013567ffffffffffffffff811115612a0757612a06612467565b5b612a13868287016129a2565b9350506020612a24868287016125fa565b9250506040612a35868287016125fa565b9150509250925092565b612a48816124f1565b8114612a5357600080fd5b50565b600081359050612a6581612a3f565b92915050565b60008060408385031215612a8257612a81612462565b5b6000612a90858286016126af565b9250506020612aa185828601612a56565b9150509250929050565b60008060008060808587031215612ac557612ac4612462565b5b6000612ad3878288016125fa565b945050602085013567ffffffffffffffff811115612af457612af3612467565b5b612b00878288016129a2565b9350506040612b11878288016125fa565b9250506060612b22878288016125fa565b91505092959194509250565b600067ffffffffffffffff821115612b4957612b486128a5565b5b612b528261256d565b9050602081019050919050565b6000612b72612b6d84612b2e565b612905565b905082815260208101848484011115612b8e57612b8d6128a0565b5b612b99848285612951565b509392505050565b600082601f830112612bb657612bb561289b565b5b8135612bc6848260208601612b5f565b91505092915050565b60008060008060808587031215612be957612be8612462565b5b6000612bf7878288016126af565b9450506020612c08878288016126af565b9350506040612c19878288016125fa565b925050606085013567ffffffffffffffff811115612c3a57612c39612467565b5b612c4687828801612ba1565b91505092959194509250565b60008060408385031215612c6957612c68612462565b5b6000612c77858286016126af565b9250506020612c88858286016126af565b9150509250929050565b7f4e487b7100000000000000000000000000000000000000000000000000000000600052602260045260246000fd5b60006002820490506001821680612cd957607f821691505b602082108103612cec57612ceb612c92565b5b50919050565b7f4552433732313a20617070726f76616c20746f2063757272656e74206f776e6560008201527f7200000000000000000000000000000000000000000000000000000000000000602082015250565b6000612d4e602183612532565b9150612d5982612cf2565b604082019050919050565b60006020820190508181036000830152612d7d81612d41565b9050919050565b7f4552433732313a20617070726f76652063616c6c6572206973206e6f7420746f60008201527f6b656e206f776e6572206f7220617070726f76656420666f7220616c6c000000602082015250565b6000612de0603d83612532565b9150612deb82612d84565b604082019050919050565b60006020820190508181036000830152612e0f81612dd3565b9050919050565b7f4576656e74206e6f7420666f756e640000000000000000000000000000000000600082015250565b6000612e4c600f83612532565b9150612e5782612e16565b602082019050919050565b60006020820190508181036000830152612e7b81612e3f565b9050919050565b7f427579657220646f6573206e6f74206f776e20746865207469636b6574000000600082015250565b6000612eb8601d83612532565b9150612ec382612e82565b602082019050919050565b60006020820190508181036000830152612ee781612eab565b9050919050565b7f4e487b7100000000000000000000000000000000000000000000000000000000600052601160045260246000fd5b6000612f28826125d9565b915060008203612f3b57612f3a612eee565b5b600182039050919050565b7f4552433732313a2063616c6c6572206973206e6f7420746f6b656e206f776e6560008201527f72206f7220617070726f76656400000000000000000000000000000000000000602082015250565b6000612fa2602d83612532565b9150612fad82612f46565b604082019050919050565b60006020820190508181036000830152612fd181612f95565b9050919050565b7f4552433732313a20696e76616c696420746f6b656e2049440000000000000000600082015250565b600061300e601883612532565b915061301982612fd8565b602082019050919050565b6000602082019050818103600083015261303d81613001565b9050919050565b7f496e73756666696369656e742066756e64730000000000000000000000000000600082015250565b600061307a601283612532565b915061308582613044565b602082019050919050565b600060208201905081810360008301526130a98161306d565b9050919050565b7f4e6f206d6f7265207469636b65747320617661696c61626c6500000000000000600082015250565b60006130e6601983612532565b91506130f1826130b0565b602082019050919050565b60006020820190508181036000830152613115816130d9565b9050919050565b6000613127826125d9565b9150613132836125d9565b9250828202613140816125d9565b9150828204841483151761315757613156612eee565b5b5092915050565b6000613169826125d9565b9150613174836125d9565b925082820190508082111561318c5761318b612eee565b5b92915050565b600061319d826125d9565b91507fffffffffffffffffffffffffffffffffffffffffffffffffffffffffffffffff82036131cf576131ce612eee565b5b600182019050919050565b60006131e5826125d9565b91506131f0836125d9565b925082820390508181111561320857613207612eee565b5b92915050565b7f4552433732313a2061646472657373207a65726f206973206e6f74206120766160008201527f6c6964206f776e65720000000000000000000000000000000000000000000000602082015250565b600061326a602983612532565b91506132758261320e565b604082019050919050565b600060208201905081810360008301526132998161325d565b9050919050565b60008190508160005260206000209050919050565b60006020601f8301049050919050565b600082821b905092915050565b6000600883026133027fffffffffffffffffffffffffffffffffffffffffffffffffffffffffffffffff826132c5565b61330c86836132c5565b95508019841693508086168417925050509392505050565b6000819050919050565b600061334961334461333f846125d9565b613324565b6125d9565b9050919050565b6000819050919050565b6133638361332e565b61337761336f82613350565b8484546132d2565b825550505050565b600090565b61338c61337f565b61339781848461335a565b505050565b5b818110156133bb576133b0600082613384565b60018101905061339d565b5050565b601f821115613400576133d1816132a0565b6133da846132b5565b810160208510156133e9578190505b6133fd6133f5856132b5565b83018261339c565b50505b505050565b600082821c905092915050565b600061342360001984600802613405565b1980831691505092915050565b600061343c8383613412565b9150826002028217905092915050565b61345582612527565b67ffffffffffffffff81111561346e5761346d6128a5565b5b6134788254612cc1565b6134838282856133bf565b600060209050601f8311600181146134b657600084156134a4578287015190505b6134ae8582613430565b865550613516565b601f1984166134c4866132a0565b60005b828110156134ec578489015182556001820191506020850194506020810190506134c7565b868310156135095784890151613505601f891682613412565b8355505b6001600288020188555050505b505050505050565b7f4552433732314d657461646174613a2055524920717565727920666f72206e6f60008201527f6e6578697374656e7420746f6b656e0000000000000000000000000000000000602082015250565b600061357a602f83612532565b91506135858261351e565b604082019050919050565b600060208201905081810360008301526135a98161356d565b9050919050565b600081905092915050565b60006135c682612527565b6135d081856135b0565b93506135e0818560208601612543565b80840191505092915050565b60006135f882856135bb565b915061360482846135bb565b91508190509392505050565b7f4f776e61626c653a206e6577206f776e657220697320746865207a65726f206160008201527f6464726573730000000000000000000000000000000000000000000000000000602082015250565b600061366c602683612532565b915061367782613610565b604082019050919050565b6000602082019050818103600083015261369b8161365f565b9050919050565b7f4f776e61626c653a2063616c6c6572206973206e6f7420746865206f776e6572600082015250565b60006136d8602083612532565b91506136e3826136a2565b602082019050919050565b60006020820190508181036000830152613707816136cb565b9050919050565b7f4552433732313a207472616e736665722066726f6d20696e636f72726563742060008201527f6f776e6572000000000000000000000000000000000000000000000000000000602082015250565b600061376a602583612532565b91506137758261370e565b604082019050919050565b600060208201905081810360008301526137998161375d565b9050919050565b7f4552433732313a207472616e7366657220746f20746865207a65726f2061646460008201527f7265737300000000000000000000000000000000000000000000000000000000602082015250565b60006137fc602483612532565b9150613807826137a0565b604082019050919050565b6000602082019050818103600083015261382b816137ef565b9050919050565b7f4552433732313a20617070726f766520746f2063616c6c657200000000000000600082015250565b6000613868601983612532565b915061387382613832565b602082019050919050565b600060208201905081810360008301526138978161385b565b9050919050565b7f4552433732313a207472616e7366657220746f206e6f6e20455243373231526560008201527f63656976657220696d706c656d656e7465720000000000000000000000000000602082015250565b60006138fa603283612532565b91506139058261389e565b604082019050919050565b60006020820190508181036000830152613929816138ed565b9050919050565b7f4e487b7100000000000000000000000000000000000000000000000000000000600052601260045260246000fd5b600081519050919050565b600082825260208201905092915050565b60006139868261395f565b613990818561396a565b93506139a0818560208601612543565b6139a98161256d565b840191505092915050565b60006080820190506139c9600083018761266e565b6139d6602083018661266e565b6139e36040830185612704565b81810360608301526139f5818461397b565b905095945050505050565b600081519050613a0f81612498565b92915050565b600060208284031215613a2b57613a2a612462565b5b6000613a3984828501613a00565b91505092915050565b7f4552433732313a206d696e7420746f20746865207a65726f2061646472657373600082015250565b6000613a78602083612532565b9150613a8382613a42565b602082019050919050565b60006020820190508181036000830152613aa781613a6b565b9050919050565b7f4552433732313a20746f6b656e20616c7265616479206d696e74656400000000600082015250565b6000613ae4601c83612532565b9150613aef82613aae565b602082019050919050565b60006020820190508181036000830152613b1381613ad7565b905091905056fea2646970667358221220f34cc11d1d9d1127719194037b04319670281732828f2b81bce5eaaeeb94067064736f6c63430008130033",
  "immutableReferences": {},
  "source": "// SPDX-License-Identifier: MIT\n\npragma solidity ^0.8.0;\n\nimport \"@openzeppelin/contracts/token/ERC721/ERC721.sol\";\nimport \"@openzeppelin/contracts/utils/Strings.sol\";\nimport \"@openzeppelin/contracts/access/Ownable.sol\";\n\ncontract EventTicket is ERC721, Ownable {\n    using Strings for uint256;\n\n    struct Event {\n        uint256 eventId;\n        string eventName;\n        uint256 price;\n        uint256 totalTickets;\n        uint256 ticketsSold;\n    }\n\n    uint256 private nextEventId = 1;\n    mapping(uint256 => Event) public events;\n    mapping(uint256 => address) public eventOwners;\n\n    constructor() ERC721(\"EventTicket\", \"ETKT\") {}\n\n\n    function createEvent(\n        string memory eventName,\n        uint256 price,\n        uint256 totalTickets\n    ) external onlyOwner {\n        events[nextEventId] = Event(\n            nextEventId,\n            eventName,\n            price,\n            totalTickets,\n            0\n        );\n        eventOwners[nextEventId] = msg.sender;\n        nextEventId++;\n    }\n\n    function updateEvent(\n        uint256 eventId,\n        string memory eventName,\n        uint256 price,\n        uint256 totalTickets\n    ) external onlyOwner {\n        require(events[eventId].eventId != 0, \"Event not found\");\n        events[eventId].eventName = eventName;\n        events[eventId].price = price;\n        events[eventId].totalTickets = totalTickets;\n    }\n\n    function buyTicket(uint256 eventId) external payable {\n        require(events[eventId].eventId != 0, \"Event not found\");\n        require(msg.value >= events[eventId].price, \"Insufficient funds\");\n        require(\n            events[eventId].ticketsSold < events[eventId].totalTickets,\n            \"No more tickets available\"\n        );\n\n        uint256 ticketId = eventId * 1000000 + events[eventId].ticketsSold;\n        _safeMint(msg.sender, ticketId);\n        events[eventId].ticketsSold++;\n\n        if (msg.value > events[eventId].price) {\n            payable(msg.sender).transfer(msg.value - events[eventId].price);\n        }\n    }\n\n    function refundTicket(\n        uint256 eventId,\n        address buyer,\n        uint256 ticketId\n    ) external onlyOwner {\n        require(events[eventId].eventId != 0, \"Event not found\");\n        require(ownerOf(ticketId) == buyer, \"Buyer does not own the ticket\");\n\n        _burn(ticketId);\n        events[eventId].ticketsSold--;\n        payable(buyer).transfer(events[eventId].price);\n    }\n\n    function transferEventOwnership(\n        uint256 eventId,\n        address newOwner\n    ) external onlyOwner {\n        require(events[eventId].eventId != 0, \"Event not found\");\n        eventOwners[eventId] = newOwner;\n    }\n\n    function tokenURI(\n        uint256 tokenId\n    ) public view virtual override returns (string memory) {\n        require(\n            _exists(tokenId),\n            \"ERC721Metadata: URI query for nonexistent token\"\n        );\n\n        string memory baseURI = _baseURI();\n        return\n            bytes(baseURI).length > 0\n                ? string(abi.encodePacked(baseURI, tokenId.toString()))\n                : \"\";\n    }\n\n}\n",
  "sourcePath": "/home/nicolas/Documents/hackathon/chainlink/mintDapp/ticketDapp/contracts/EventTicket.sol",
  "compiler": {
    "name": "solc",
    "version": "0.8.19+commit.7dd6d404.Emscripten.clang"
  },
  "schemaVersion": "3.4.13",
  "updatedAt": "2023-05-10T03:39:35.322Z",
  "networkType": "ethereum",
  "devdoc": {
    "events": {
      "Approval(address,address,uint256)": {
        "details": "Emitted when `owner` enables `approved` to manage the `tokenId` token."
      },
      "ApprovalForAll(address,address,bool)": {
        "details": "Emitted when `owner` enables or disables (`approved`) `operator` to manage all of its assets."
      },
      "Transfer(address,address,uint256)": {
        "details": "Emitted when `tokenId` token is transferred from `from` to `to`."
      }
    },
    "kind": "dev",
    "methods": {
      "approve(address,uint256)": {
        "details": "See {IERC721-approve}."
      },
      "balanceOf(address)": {
        "details": "See {IERC721-balanceOf}."
      },
      "getApproved(uint256)": {
        "details": "See {IERC721-getApproved}."
      },
      "isApprovedForAll(address,address)": {
        "details": "See {IERC721-isApprovedForAll}."
      },
      "name()": {
        "details": "See {IERC721Metadata-name}."
      },
      "owner()": {
        "details": "Returns the address of the current owner."
      },
      "ownerOf(uint256)": {
        "details": "See {IERC721-ownerOf}."
      },
      "renounceOwnership()": {
        "details": "Leaves the contract without owner. It will not be possible to call `onlyOwner` functions anymore. Can only be called by the current owner. NOTE: Renouncing ownership will leave the contract without an owner, thereby removing any functionality that is only available to the owner."
      },
      "safeTransferFrom(address,address,uint256)": {
        "details": "See {IERC721-safeTransferFrom}."
      },
      "safeTransferFrom(address,address,uint256,bytes)": {
        "details": "See {IERC721-safeTransferFrom}."
      },
      "setApprovalForAll(address,bool)": {
        "details": "See {IERC721-setApprovalForAll}."
      },
      "supportsInterface(bytes4)": {
        "details": "See {IERC165-supportsInterface}."
      },
      "symbol()": {
        "details": "See {IERC721Metadata-symbol}."
      },
      "tokenURI(uint256)": {
        "details": "See {IERC721Metadata-tokenURI}."
      },
      "transferFrom(address,address,uint256)": {
        "details": "See {IERC721-transferFrom}."
      },
      "transferOwnership(address)": {
        "details": "Transfers ownership of the contract to a new account (`newOwner`). Can only be called by the current owner."
      }
    },
    "version": 1
  },
  "userdoc": {
    "kind": "user",
    "methods": {},
    "version": 1
  }
}